:020000040800F2
:1000000000500020C90A00080F0B0008110B00085F
:10001000130B0008150B0008170B00080000000068
:10002000000000000000000000000000190B0008A4
:100030001B0B0008000000001D0B0008DD0100087C
:10004000230B0008250B0008270B0008290B0008CC
:100050002B0B00082D0B00082F0B0008310B00089C
:10006000330B0008350B0008370B0008390B00086C
:100070003B0B00083D0B00083F0B0008410B00083C
:10008000430B0008450B0008470B0008490B00080C
:100090004B0B00084D0B00084F0B0008510B0008DC
:1000A000530B0008550B0008570B0008590B0008AC
:1000B0005B0B00085D0B00085F0B0008610B00087C
:1000C000630B0008650B0008670B0008690B00084C
:1000D0006B0B00087D0300086F0B0008710B000814
:1000E000730B0008750B0008770B000810B5054C62
:1000F000237833B9044B13B10448AFF300800123D4
:10010000237010BDBC00002000000000BC430008AC
:10011000084B10B51BB108490848AFF300800848E8
:10012000036803B910BD074B002BFBD0BDE810409E
:10013000184700BF00000000C0000020BC430008BA
:10014000BC00002000000000154B002B08BF134B23
:100150009D46A3F5803A00218B460F461348144A6A
:10016000121A01F017FA0F4B002B00D098470E4BD4
:10017000002B00D098470020002104000D000D48FE
:10018000002802D00C48AFF3008001F0DDF9200018
:10019000290000F07DFC01F0C3F900BF0000080059
:1001A000005000200000000000000000BC00002003
:1001B00000020020000000000000000080B400AF3A
:1001C000054B6FF07F425A60034B07221A6000BF55
:1001D000BD4680BC704700BF10E000E080B400AFB7
:1001E000044B1B680133034A136000BFBD4680BC4B
:1001F000704700BF0000002080B400AF044B1B68B4
:100200001A06044B9B68D31A1846BD4680BC70473B
:100210000000002010E000E080B584B000AF7860FE
:10022000FFF7EAFF01467A681346DB001344DB0060
:100230000B44FB6000BFFFF7DFFF0246FB689B1A21
:10024000002BF8DC00BF1037BD4680BD80B582B002
:1002500000AF786006E04FF47A70FFF7DDFF7B684F
:10026000013B7B607B68002BF5D100BF0837BD46A2
:1002700080BD00BF80B483B000AF0346FB71084966
:1002800097F907305B09FA7902F01F02012000FAA2
:1002900002F241F8232000BF0C37BD4680BC7047F6
:1002A00000E100E080B586B000AF012144F2040017
:1002B00000F02EFA4FF4E133BB600023BB81002332
:1002C000FB8100233B820023BB820C237B8207F14E
:1002D00008031946144800F039FA012240F225516A
:1002E000114800F00DFB2520FFF7C4FF01210E4847
:1002F00000F0E6FA4FF40073BB800123BB711823B2
:10030000FB713B1D1946094800F060F84FF480630B
:10031000BB804823FB713B1D1946044800F056F88A
:1003200000BF1837BD4680BD0038014000080140BD
:1003300080B487B000AFF860B9607A607B687B6199
:1003400011E000BF0C4B1B889BB203F08003002B15
:10035000F8D00949BB685A1CBA601B789BB28B80E5
:100360007B69013B7B617B69002BEAD17B68184686
:100370001C37BD4680BC70470038014080B582B054
:1003800000AF0E4800F004FB0346FB710C4B1B68EA
:100390000C49FA79CA540A4B1B685A1C0A4B134081
:1003A000002B03DA013B63F0FF0301331A46044BD1
:1003B0001A6000BF0837BD4680BD00BF003801404D
:1003C000D8000020E8000020FF00008080B489B041
:1003D00000AF786039600023FB6100233B6100239C
:1003E000BB610023FB6000237B610023BB603B6893
:1003F000DB7803F00F03FB613B68DB7803F010034D
:10040000002B05D03B689B781A46FB691343FB61C0
:100410003B681B88DBB2002B44D07B681B687B6188
:100420000023BB6138E00122BB6902FA03F3FB60E1
:100430003B681B881A46FB6813403B613A69FB68BE
:100440009A4226D1BB699B00FB600F22FB6802FA2F
:1004500003F3BB60BB68DB437A6913407B61FA69D5
:10046000FB6802FA03F37A6913437B613B68DB782C
:10047000282B05D10122BB699A407B685A6108E0AC
:100480003B68DB78482B04D10122BB699A407B682A
:100490001A61BB690133BB61BB69072BC3D97B6898
:1004A0007A691A603B681B88FF2B46D97B685B68BA
:1004B0007B610023BB613AE0BB690833012202FA89
:1004C00003F3FB603B681B881A46FB6813403B61E3
:1004D0003A69FB689A4227D1BB699B00FB600F22F7
:1004E000FB6802FA03F3BB60BB68DB437A69134025
:1004F0007B61FA69FB6802FA03F37A6913437B6153
:100500003B68DB78282B05D1BB69083301229A4070
:100510007B685A613B68DB78482B05D1BB6908339F
:1005200001229A407B681A61BB690133BB61BB69D8
:10053000072BC1D97B687A695A6000BF2437BD4652
:1005400080BC704780B485B000AF78600B467B807C
:100550000023FB737B689A687B881340002B02D0D2
:100560000123FB7301E00023FB73FB7B1846143768
:10057000BD4680BC704700BF80B483B000AF7860D8
:100580000B467B807A887B681A6100BF0C37BD46BA
:1005900080BC704780B483B000AF78600B467B802E
:1005A0007A887B685A6100BF0C37BD4680BC7047B3
:1005B00080B487B000AF786000237B6100233B618B
:1005C0000023FB600023BB604C4B5B6803F00C0313
:1005D0007B617B69042B07D0082B09D0002B33D11A
:1005E0007B68474A1A6033E07B68454A1A602FE00F
:1005F000424B5B6803F470133B61404B5B6803F450
:100600008033FB603B699B0C02333B61FB68002B32
:1006100006D13B693B4A02FB03F27B681A6017E094
:10062000364B5B6803F40033002B06D03B69354A38
:1006300002FB03F27B681A600AE03B69304A02FB66
:1006400003F27B681A6003E07B682D4A1A6000BFE2
:100650002A4B5B6803F0F0037B617B691B097B61BC
:10066000294A7B6913441B78DBB2BB607B681A683C
:10067000BB68DA407B685A60204B5B6803F4E06338
:100680007B617B691B0A7B611F4A7B6913441B7872
:10069000DBB2BB607B685A68BB68DA407B689A60F3
:1006A000164B5B6803F460537B617B69DB0A7B61FB
:1006B000154A7B6913441B78DBB2BB607B685A68C0
:1006C000BB68DA407B68DA600C4B5B6803F440433C
:1006D0007B617B699B0B7B610C4A7B6913441B78B4
:1006E000DBB2BB607B68DA68BB68B2FBF3F27B68A5
:1006F0001A6100BF1C37BD4680BC70470010024025
:1007000000127A0000093D000400002014000020BF
:1007100080B483B000AF78600B46FB70FB78002B91
:1007200006D00949084B9A697B6813438B6106E040
:100730000549054B9A697B68DB4313408B6100BF19
:100740000C37BD4680BC70470010024080B58CB0AD
:1007500000AF786039600023FB620023BB62002396
:100760007B6200233B620023FB617B68FB617B684B
:100770001B8A9BB2FB62FA6A4CF6FF731340FB6262
:100780003B68DB881A46FB6A1343FB62FB6A9AB23A
:100790007B681A827B689B899BB2FB62FA6A4EF681
:1007A000F3131340FB623B689A883B681B89134331
:1007B0009AB23B685B8913439BB21A46FB6A1343A8
:1007C000FB62FB6A9AB27B689A817B689B8A9BB2C8
:1007D000FB62FA6A4FF6FF431340FB623B689B895A
:1007E0001A46FB6A1343FB62FB6A9AB27B689A82E1
:1007F00007F108031846FFF7DBFEFB692E4A934218
:1008000002D17B69BB6201E03B69BB627B689B896B
:100810009BB21BB2002B0CDABA6A13469B0013443E
:100820009A001A443B681B685B00B2FBF3F37B62DF
:100830000BE0BA6A13469B0013449A001A443B68C3
:100840001B689B00B2FBF3F37B627B6A1B4AA2FB33
:1008500003235B091B01FB62FB6A1B09642202FB89
:1008600003F37A6AD31A3B627B689B899BB21BB203
:10087000002B0CDA3B6ADB003233104AA2FB032365
:100880005B0903F00703FA6A1343FB620BE03B6A60
:100890001B013233094AA2FB03235B0903F00F0358
:1008A000FA6A1343FB62FB6A9AB27B681A8100BF43
:1008B0003037BD4680BD00BF003801401F85EB5179
:1008C00080B483B000AF78600B46FB70FB78002BE0
:1008D00008D07B689B899BB243F400539AB27B6833
:1008E0009A8107E07B689B899BB223F400539AB2FC
:1008F0007B689A8100BF0C37BD4680BC704700BF43
:1009000080B487B000AF78600B467B8013467B7065
:1009100000233B610023FB600023BB6000237B615D
:100920007B687B617B88DBB25B09DBB23B617B88E8
:1009300003F01F03FB600122FB6802FA03F3BB60B4
:100940003B69012B03D17B690C337B6109E03B6977
:10095000022B03D17B6910337B6102E07B69143386
:100960007B617B78002B06D07B697A691168BA6855
:100970000A431A6006E07B697A691168BA68D24353
:100980000A401A6000BF1C37BD4680BC704700BFDC
:1009900080B483B000AF78607B689B889BB2C3F360
:1009A00008039BB218460C37BD4680BC704700BF99
:1009B00080B582B000AF01210420FFF7A9FE10230B
:1009C000FB710123BB800323BB713B1D19460B4800
:1009D000FFF7FCFC4823FB710223BB800323BB71A0
:1009E0003B1D19460548FFF7F1FC01210348FFF7BD
:1009F000D1FD00BF0837BD4680BD00BF00080140E3
:100A000080B584B000AF1F4BBB6001211E48FFF7CB
:100A1000C1FD0220FFF700FC01211B48FFF7ACFDE0
:100A20000A20FFF7F9FB07E0BB685A1EBA60002BEB
:100A300002D14FF07E5321E002211348FFF782FDDF
:100A40000346002BF0D00023FB6005E0FB68013378
:100A5000FB600120FFF7E0FB02210B48FFF772FD6E
:100A60000346002BF2D1F86800F0B2FB03460749B9
:100A7000184600F005FC03467B607B68184610377B
:100A8000BD4680BD40420F0000080140A323393D10
:100A900098B500AFFFF78CFFFFF790FBFFF702FC64
:100AA000FFF7AEFF0346184600F088FA03460C46EF
:100AB0001A462346034801F0E7F94FF4FA70FFF7AE
:100AC000C5FBEDE7E84100080649074A074B9A4293
:100AD000BEBF51F8040B42F8040BF8E70448804706
:100AE00004480047C843000800000020BC00002064
:100AF000810B0008490100081F49204A002301E03A
:100B000041F8043B9142FBD3FFF7C2FFFEE7FEE74B
:100B1000FEE7FEE7FEE7FEE7FEE7FEE7FEE7FEE7AD
:100B2000FEE7FEE7FEE7FEE7FEE7FEE7FEE7FEE79D
:100B3000FEE7FEE7FEE7FEE7FEE7FEE7FEE7FEE78D
:100B4000FEE7FEE7FEE7FEE7FEE7FEE7FEE7FEE77D
:100B5000FEE7FEE7FEE7FEE7FEE7FEE7FEE7FEE76D
:100B6000FEE7FEE7FEE7FEE7FEE7FEE7FEE7FEE75D
:100B7000FEE7FEE7FEE7FEE7BC00002000020020E3
:100B800080B500AF154A154B1B6843F00103136095
:100B90001249124B5A68124B13404B600F4A0F4BCD
:100BA0001B6823F0847323F4803313600B4A0B4BD0
:100BB0001B6823F480231360084A084B5B6823F406
:100BC000FE035360054B4FF41F029A6000F00CF8CF
:100BD000044B4FF000629A6000BF80BD00100240DD
:100BE0000000FFF800ED00E080B500AF00F002F873
:100BF00000BF80BD80B483B000AF00237B600023C2
:100C00003B603A4A394B1B6843F480331360374BDF
:100C10001B6803F400333B607B6801337B603B68F7
:100C2000002B03D17B68B3F5A06FF0D12F4B1B686D
:100C300003F40033002B02D001233B6001E00023CA
:100C40003B603B68012B4BD1294A294B1B6843F081
:100C500010031360264A264B1B6823F0030313601E
:100C6000234A234B1B6843F0020313601F4A1F4BA8
:100C70005B6853601D4A1D4B5B6853601B4A1B4BEE
:100C80005B6843F480635360184A184B5B6823F435
:100C90007C135360154A154B5B6843F4E8135360AB
:100CA000124A124B1B6843F08073136000BF0F4B56
:100CB0001B6803F00073002BF9D00C4A0B4B5B68E8
:100CC00023F003035360094A084B5B6843F00203B7
:100CD000536000BF054B5B6803F00C03082BF9D190
:100CE00000BF0C37BD4680BC704700BF00100240FB
:100CF0000020024081F0004102E000BF83F0004389
:100D000030B54FEA41044FEA430594EA050F08BFA6
:100D100090EA020F1FBF54EA000C55EA020C7FEA6A
:100D2000645C7FEA655C00F0E2804FEA5454D4EBE7
:100D30005555B8BF6D420CDD2C4480EA020281EAB1
:100D4000030382EA000083EA010180EA020281EAE9
:100D50000303362D88BF30BD11F0004F4FEA01313B
:100D60004FF4801C4CEA113102D0404261EB41014A
:100D700013F0004F4FEA03334CEA133302D05242D0
:100D800063EB430394EA050F00F0A780A4F101048C
:100D9000D5F1200E0DDB02FA0EFC22FA05F28018C6
:100DA00041F1000103FA0EF2801843FA05F35941AC
:100DB0000EE0A5F120050EF1200E012A03FA0EFC2B
:100DC00028BF4CF0020C43FA05F3C01851EBE37155
:100DD00001F0004507D54FF0000EDCF1000C7EEB72
:100DE00000006EEB0101B1F5801F1BD3B1F5001FB0
:100DF0000CD349085FEA30004FEA3C0C04F10104CF
:100E00004FEA445212F5800F80F09A80BCF1004FF7
:100E100008BF5FEA500C50F1000041EB045141EA79
:100E2000050130BD5FEA4C0C404141EB010111F47A
:100E3000801FA4F10104E9D191F0000F04BF014625
:100E40000020B1FA81F308BF2033A3F10B03B3F103
:100E500020020CDA0C3208DD02F1140CC2F10C0293
:100E600001FA0CF021FA02F10CE002F11402D8BFF1
:100E7000C2F1200C01FA02F120FA0CFCDCBF41EABD
:100E80000C019040E41AA2BF01EB0451294330BD8C
:100E90006FEA04041F3C1CDA0C340EDC04F1140469
:100EA000C4F1200220FA04F001FA02F340EA030040
:100EB00021FA04F345EA030130BDC4F10C04C4F186
:100EC000200220FA02F001FA04F340EA0300294666
:100ED00030BD21FA04F0294630BD94F0000F83F4B0
:100EE000801306BF81F480110134013D4EE77FEA93
:100EF000645C18BF7FEA655C29D094EA050F08BFDF
:100F000090EA020F05D054EA000C04BF19461046BF
:100F100030BD91EA030F1EBF0021002030BD5FEA03
:100F2000545C05D14000494128BF41F0004130BD2B
:100F300014F580043CBF01F5801130BD01F000457F
:100F400045F0FE4141F470014FF0000030BD7FEAF2
:100F5000645C1ABF194610467FEA655C1CBF0B46ED
:100F6000024650EA013406BF52EA033591EA030F04
:100F700041F4002130BD00BF90F0000F04BF0021FC
:100F8000704730B54FF4806404F132044FF000052F
:100F90004FF0000150E700BF90F0000F04BF0021A8
:100FA000704730B54FF4806404F1320410F000450E
:100FB00048BF40424FF000013EE700BF42004FEA09
:100FC000E2014FEA31014FEA02701FBF12F07F4386
:100FD00093F07F4F81F06051704792F0000F14BF83
:100FE00093F07F4F704730B54FF4607401F00045C7
:100FF00021F0004120E700BF50EA010208BF70471E
:1010000030B54FF000050AE050EA010208BF704712
:1010100030B511F0004502D5404261EB41014FF47B
:10102000806404F132045FEA915C3FF4DCAE4FF07F
:1010300003025FEADC0C18BF03325FEADC0C18BF66
:10104000033202EBDC02C2F1200300FA03FC20FAB7
:1010500002F001FA03FE40EA0E0021FA02F1144404
:10106000C1E600BF80F0004002E000BF81F0004117
:1010700042001FBF5FEA410392EA030F7FEA226C3E
:101080007FEA236C6AD04FEA1262D2EB1363C1BFCE
:10109000D218414048404140B8BF5B42192B88BF3D
:1010A000704710F0004F40F4000020F07F4018BF60
:1010B000404211F0004F41F4000121F07F4118BF80
:1010C000494292EA030F3FD0A2F1010241FA03FC28
:1010D00010EB0C00C3F1200301FA03F100F0004310
:1010E00002D5494260EB4000B0F5000F13D3B0F1D8
:1010F000807F06D340084FEA310102F10102FE2A47
:1011000051D2B1F1004F40EBC25008BF20F00100B6
:1011100040EA03007047490040EB000010F4000F64
:10112000A2F10102EDD1B0FA80FCACF1080CB2EBF7
:101130000C0200FA0CF0AABF00EBC2505242184356
:10114000BCBFD0401843704792F0000F81F40001FB
:1011500006BF80F400000132013BB5E74FEA4103CE
:101160007FEA226C18BF7FEA236C21D092EA030F3A
:1011700004D092F0000F08BF0846704790EA010FB4
:101180001CBF0020704712F07F4F04D1400028BFE1
:1011900040F00040704712F100723CBF00F50000C3
:1011A000704700F0004343F0FE4040F400007047F9
:1011B0007FEA226216BF08467FEA236301464202A5
:1011C00006BF5FEA412390EA010F40F480007047B8
:1011D0004FF0000304E000BF10F0004348BF40425E
:1011E0005FEA000C08BF704743F0964301464FF09A
:1011F00000001CE050EA010208BF70474FF00003F6
:101200000AE000BF50EA010208BF704711F0004336
:1012100002D5404261EB41015FEA010C02BF844606
:101220000146002043F0B64308BFA3F18053A3F565
:101230000003BCFA8CF2083AA3EBC25310DB01FAAC
:1012400002FC634400FA02FCC2F12002BCF1004F30
:1012500020FA02F243EB020008BF20F001007047C1
:1012600002F1200201FA02FCC2F1200250EA4C0015
:1012700021FA02F243EB020008BF20EADC7070475B
:101280004FF0FF0C1CEAD0521EBF1CEAD15392EA69
:101290000C0F93EA0C0F6FD01A4480EA010C400245
:1012A00018BF5FEA41211ED04FF0006343EA50109F
:1012B00043EA5111A0FB01310CF00040B1F5000FE1
:1012C0003EBF490041EAD3715B0040EA010062F190
:1012D0007F02FD2A1DD8B3F1004F40EBC25008BF7A
:1012E00020F00100704790F0000F0CF0004C08BF98
:1012F00049024CEA502040EA51207F3AC2BFD2F165
:10130000FF0340EAC250704740F400004FF0000372
:10131000013A5DDC12F1190FDCBF00F000407047AC
:10132000C2F10002410021FA02F1C2F1200200FAEA
:1013300002FC5FEA310040F1000053EA4C0308BFB1
:1013400020EADC70704792F0000F00F0004C02BF02
:10135000400010F4000F013AF9D040EA0C0093F07D
:10136000000F01F0004C02BF490011F4000F013BD7
:10137000F9D041EA0C018FE70CEAD15392EA0C0F45
:1013800018BF93EA0C0F0AD030F0004C18BF31F0B0
:10139000004CD8D180EA010000F00040704790F086
:1013A000000F17BF90F0004F084691F0000F91F02A
:1013B000004F14D092EA0C0F01D142020FD193EAF0
:1013C0000C0F03D14B0218BF084608D180EA010078
:1013D00000F0004040F0FE4040F40000704740F054
:1013E000FE4040F4400070474FF0FF0C1CEAD05222
:1013F0001EBF1CEAD15392EA0C0F93EA0C0F69D07E
:10140000A2EB030280EA010C49024FEA402037D0E8
:101410004FF0805343EA111143EA10130CF00040DF
:101420008B4238BF5B0042F17D024FF4000C8B42CF
:1014300024BF5B1A40EA0C00B3EB510F24BFA3EBAF
:10144000510340EA5C00B3EB910F24BFA3EB91037F
:1014500040EA9C00B3EBD10F24BFA3EBD10340EAD9
:10146000DC001B0118BF5FEA1C1CE0D1FD2A3FF61F
:1014700050AF8B4240EBC25008BF20F001007047D4
:101480000CF0004C4CEA50207F32C2BFD2F1FF0377
:1014900040EAC250704740F400004FF00003013AA8
:1014A00037E792F0000F00F0004C02BF400010F44C
:1014B000000F013AF9D040EA0C0093F0000F01F060
:1014C000004C02BF490011F4000F013BF9D041EA82
:1014D0000C0195E70CEAD15392EA0C0F08D14202B5
:1014E0007FF47DAF93EA0C0F7FF470AF084676E788
:1014F00093EA0C0F04D14B023FF44CAF08466EE761
:1015000030F0004C18BF31F0004CCAD130F000422E
:101510007FF45CAF31F000437FF43CAF5FE700BF86
:1015200008B5074B044613B10021AFF30080054B0B
:101530001868836A03B19847204602F047FE00BF4F
:1015400000000000F44100080E4B70B51E460E4C22
:101550000025E41AA410A54204D056F82530984777
:101560000135F8E702F034FE084B094C1E46E41A38
:10157000A4100025A54204D056F82530984701351F
:10158000F8E770BDB4000020B4000020B4000020D3
:10159000B800002003460244934202D003F8011B26
:1015A000FAE770472DE9F04788B0149F002B1E46DC
:1015B0001299B8BF03F1004327F02007B6BF1E46BB
:1015C00000232D23462F1446109DDDF84CA00B70F0
:1015D00003D0452F03D1013501E0032300E00223AE
:1015E00007AA049206AA03928DE8280422463346ED
:1015F00000F0F6FC472F804602D1119BDB0728D56F
:10160000462F08EB050911D198F80030302B0AD18C
:10161000002200232046314602F032FD18B9C5F100
:101620000105CAF80050DAF800309944002200237E
:101630002046314602F024FD08B9302202E0CDF800
:101640001C9006E0079B994503D9591C07911A7015
:10165000F8E74046079B159AC8EB0303136008B0F0
:10166000BDE8F087034673B50029B8BF494203F8C7
:10167000022BB4BF2D222B22092942701ADD0DF155
:10168000070216460A2591FBF5F405FB1411092CF7
:1016900001F1300102F8011D2146F4DC3031541E05
:1016A00002F8011CB4421A460AD214F8012B03F8BE
:1016B000012BF7E71A463024214402F8024B5970F7
:1016C000101A02B070BD00002DE9F04F91B00C4629
:1016D000DDF8688016461F46054601F0E3FA036808
:1016E0001846099300F0E8FB00230E93D8F8003069
:1016F0000A90073323F0070303F1080294F81890C7
:10170000D4F800B0C8F80020D3E90023C4E91223BC
:10171000D4F84CA0D4F848802AF000430B934FF043
:10172000FF32A74B40460B9902F0DCFCA0B94FF00A
:10173000FF32A34B40460B9902F0B6FC60B9002281
:1017400000234046514602F0A5FC10B12D2384F839
:1017500043309C4B9C4A0AE0424653464046514621
:1017600002F0C0FC002800F09281984B984AB9F131
:10177000470F8CBF90469846032323612BF0040348
:1017800023604FF0000A3DE0B9F1670F00F08A8155
:10179000B9F1470F00F0868123600193636800214F
:1017A0000DF1330205900292009342465346069192
:1017B000CDF81090CDF80CE02846FFF7F3FE09F0C5
:1017C000DF03472B804600F08481B9F1650F0D9946
:1017D00000F28D8101394A4604F150000D91FFF766
:1017E00041FF0E9A82468318012A236100F37C810F
:1017F0002268D10700F178819DF8333013B12D2391
:1018000084F84330009733460FAA2146284600F05B
:101810009FF9013002D14FF0FF3096E123685A055D
:1018200001D4236965E0B9F1650F40F2D580D4E9B0
:1018300012010022002302F023FC78B30123654A41
:1018400031462846B8470130E5D00E9B0D9A9A42A2
:101850000BDB2368D80708D423689B0740F111816C
:101860004FF0000804F1190906E10A9B099A314674
:101870002846B8470130CED04FF0000804F11A09CD
:101880000E9B013B9845E7DA01234A46314628463C
:10189000B8470130BFD008F10108F1E70D9B002BDC
:1018A00029DC01234B4A31462846B8470130B2D0E3
:1018B0000D9B23B90E9B13B92368D907CCD50A9B7E
:1018C000099A31462846B8470130A4D04FF00009A4
:1018D00004F11A0A0D9B5B42994509DA012352462D
:1018E00031462846B847013095D009F10109F1E7A2
:1018F0000E9B4246A7E00E9AA36D9A42A8BF1A46D5
:10190000002A914606DC4FF0000A29EAE97904F141
:101910001A0B11E01346314642462846B8470130BB
:10192000F1D178E701235A4631462846B8470130BD
:101930003FF471AF0AF1010AA36DC9EB03029245AE
:10194000F0DB08EB03090D9A0E9B9A420FDB23682C
:10195000DA070CD40E9B0D9A9844C9EB08089B1A21
:101960009845A8BF9846B8F1000F08DC0FE00A9B25
:10197000099A31462846B8470130EBD14BE7434638
:101980004A4631462846B84701303FF444AF4FF04D
:10199000000928EAE87804F11A0A09E0012352460E
:1019A00031462846B84701303FF435AF09F1010907
:1019B0000D9A0E9B9B1AC8EB03039945EEDB4BE790
:1019C000FFFFEF7FF8410008FC41000800420008DB
:1019D00004420008084200080E9A012A01DCDB07D5
:1019E00038D50123424631462846B84701303FF4F6
:1019F00012AF0A9B099A31462846B84701303FF496
:101A00000AAFD4E912010022002302F039FB20B111
:101A10004FF0000804F11A090EE00E9B08F10102D4
:101A2000013B19E001234A4631462846B8470130B8
:101A30003FF4F1AE08F101080E9B013B9845F1DB44
:101A4000534604F1500231462846B84701307FF42E
:101A500003AFE0E64246012331462846B84701304D
:101A6000EED1D8E601234A4631462846B847013030
:101A70003FF4D1AE08F10108E3680F9A9B1A98452C
:101A8000F0DBE0680F9B9842B8BF18465DE06268E3
:101A90000EA8531C0DF1340E4BF480637FF474AE2A
:101AA000062201E012B90122626075E6002106916A
:101AB0000DF133018DE80C00236005904246CDF80E
:101AC0001090CDF80CE0029153462846FFF76AFDCE
:101AD00080460D9BD81C02DB626893421DDDA9F194
:101AE00002095FFA89F970E60133236184E6B9F1EE
:101AF000660F14D10029636807DD216113B92268DC
:101B0000D2071DD501330B4419E013B92268D00761
:101B100001D5023313E0012311E04FF067090D9B5B
:101B20000E9A934205DB22682361D10708D5013361
:101B300005E0002BD4BFC3F102030123134423614A
:101B40000D9B4FF0000AA36556E611B0BDE8F08F7B
:101B50002DE9F04791461F460A698B680646934275
:101B6000B8BF1346C9F8003091F843200C46DDF8A1
:101B7000208012B10133C9F800302368990642BFB2
:101B8000D9F800300233C9F80030256815F0060591
:101B900010D104F1190A07E00123524639463046B4
:101BA000C04701301AD00135E368D9F800209B1AEC
:101BB0009D42F1DB94F843302268003318BF0123C3
:101BC00092060FD5E118302081F843005A1C94F892
:101BD00045102244023382F8431003E04FF0FF30F7
:101BE000BDE8F08704F1430239463046C047013072
:101BF000F4D02268D9F80050E36802F00602042A03
:101C000008BF5D1B2269A3680CBF25EAE5750025A6
:101C10009342C4BF9B1AED184FF000091A344D458A
:101C200009D00123224639463046C0470130D5D07D
:101C300009F10109F3E70020BDE8F0872DE9F04341
:101C400017460A7E85B06E2A984606460C460C9BBF
:101C500001F1430E00F0AE8011D8632A22D009D8DA
:101C6000002A00F0BB80582A40F0CA8081F8452045
:101C7000834955E0642A1ED0692A1CD0C0E0732A2B
:101C800000F0B08009D86F2A2ED0702A40F0B880BA
:101C90000A6842F020020A603EE0752A24D0782AC1
:101CA0003AD0ADE01A6801F14205111D19601368C0
:101CB00084F84230A8E021681A6811F0800F02D041
:101CC000111D196008E011F0400F02F104011960C4
:101CD00002D0B2F9003000E01368002B3CDA2D226C
:101CE0005B4284F8432037E021681A6811F0800FC6
:101CF00002D0111D196007E011F0400F02F104013C
:101D0000196001D0138800E01368227E5C496F2AB5
:101D100014BF0A2208221BE078225A4984F8452081
:101D20002268186812F0800F00F104051D6003D1CD
:101D3000550601D5038800E00368D00744BF42F090
:101D4000200222601BB9226822F0200222601022A9
:101D5000002084F8430001E049490A226568002D0B
:101D6000A56008DB206820F0040020602BB9002D5E
:101D70007DD175460CE0002B79D07546B3FBF2F0AF
:101D800002FB1033CB5C05F8013D03460028F5D17A
:101D9000082A0BD12368DA0708D5236962689A42BA
:101DA000DEBF302305F8013C05F1FF35C5EB0E031E
:101DB00023612EE008681A6810F0800F496903D08B
:101DC000101D1860136808E010F0400F02F10400C5
:101DD0001860136801D0198000E0196000232361A6
:101DE000754616E01A68111D1960156800216268B1
:101DF000284600F063FF08B1401B6060636804E0A0
:101E000004F1420584F8422001232361002384F871
:101E10004330CDF800803B4603AA21463046FFF709
:101E200097FE013002D14FF0FF3026E023692A46A9
:101E300039463046C0470130F5D023689B0710D59E
:101E4000002504F1190907E001234A4639463046C6
:101E5000C0470130E7D00135E368039A9B1A9D42E1
:101E6000F2DBE068039B9842B8BF184605E00B78A8
:101E700004F1420584F842308AE705B0BDE8F083FA
:101E80000A4200081B4200080FB40A4B13B51C6835
:101E900024B1A36913B9204600F07AFE05AB049A79
:101EA000A1682046019301F0D7FA02B0BDE81040C6
:101EB00004B0704778000020034613F8012B002A75
:101EC000FBD1181A013870472DE9F74F03690C69E7
:101ED00080469C427FDC013C01F114074FEA840EEE
:101EE00000F1140606EB0E0357F82450019356F840
:101EF00024300135B3FBF5F507EB0E09C5B34FF000
:101F0000000A3846B446D34650F8043B9AB205FB63
:101F100002A21B0C4FEA124A05FB03A392B2C2EBCA
:101F20000B0BBCF800204FEA134A5A441FFA83FBFC
:101F3000DCF800308145CBEB134303EB224392B234
:101F400042EA03424FEA234B4CF8042BDCD256F80A
:101F50000E306BB9019B043B9E421A4602D3C8F86F
:101F6000104005E01268043B002AF8D1013CF3E779
:101F7000404601F0C8F800282BDB304601354FF011
:101F8000000E57F8042B036891B2C1EB0E0E120C31
:101F900099B27144C2EB134303EB214389B24FEA78
:101FA000234EB94541EA034340F8043BE9D256F8D1
:101FB000242006EB840362B9043B9E421A4602D3F6
:101FC000C8F8104005E01268043B002AF8D1013C33
:101FD000F3E7284600E0002003B0BDE8F08F0000E2
:101FE0002DE9F04F456A95B08246219CCDE9022348
:101FF00045B9102000F05AFECAF8240045608560FB
:102000000560C560DAF82430196859B15A680123AF
:1020100093404A608B60504600F09EFEDAF8243010
:1020200000221A60039BA04A002BBDBF012323603E
:10203000039B0023BCBF23F000430393DDF80C8017
:10204000A8BF236028F000431B0D1B0593421DD140
:1020500042F20F73209A1360029B43B9934A944B48
:10206000C8F31300002814BF1846104600E090483B
:10207000229B002B00F04685C37813B100F10803C2
:1020800000E0C31C229A136000F03CBDDDE902456C
:10209000002200232046294601F0F2FF074658B1EE
:1020A000209A01231360229B002B00F01E8581489B
:1020B0001860013800F026BD12AB019313AB0093FA
:1020C00022462B46504601F099F8C8F30A56049070
:1020D00056B1C5F3130343F07F51204641F440113C
:1020E000A6F2FF3611971DE0139B129E1E4406F2C6
:1020F0003243202B0ADD029A06F21240C3F140035C
:1021000022FA00F008FA03F3184304E0C3F12000B8
:10211000029B03FA00F0FEF72FFF0123A1F1F871F3
:10212000013E11930022644BFEF7E8FD58A3D3E96A
:10213000002301F03DFD58A3D3E90023FEF7E0FDA5
:10214000044630460D46FEF727FF55A3D3E900238A
:1021500001F02EFD02460B4620462946FEF7D0FD33
:1021600004460D4601F0D4FF00228346002320469A
:10217000294601F08FFF58B15846FEF70DFF024681
:102180000B462046294601F07BFF08B90BF1FF3BC7
:10219000BBF1160F0DD8DDE90223484901EBCB0155
:1021A000D1E9000101F094FF30B10BF1FF3B0023B6
:1021B00000E00123109300E01090129B9E1B731E01
:1021C000079343BFC3F10008002307934FF00008B3
:1021D000BBF1000F06DB079BCDF82CB05B440793E7
:1021E000002705E00023CBEB0808CBF100070B9399
:1021F0001E9B092B28D8052BC4BF043B1E931E9B96
:10220000C8BF0025A3F10203D8BF0125032B20D8A6
:10221000DFE803F0060E0204012302E0012308E0D8
:1022200000230A931F9B002B1DDD9946059321E097
:1022300000230A931F9B0BEB030909F10103012BF8
:102240000593B8BF012315E0012500231E930A95CD
:1022500001E001230A934FF0FF390022CDF81490DA
:1022600012231F9206E04FF001094B46CDF814905F
:10227000CDF87C90DAF8244000226260042101F15C
:1022800014029A421CD86268490001326260F6E783
:1022900061436F63A787D23FB3C8608B288AC63F6C
:1022A000FB799F501344D33F0000F07F2C4200087D
:1022B00035420008094200080000F83FA842000823
:1022C0006168504600F013FDDAF8243020601B6886
:1022D0000693059B0E2B00F25B81002D00F05881C8
:1022E000DDE90234BBF1000FCDE90E3430DD9F4A49
:1022F0000BF00F034FEA2B1502EBC303E80618CBD4
:10230000CDE908340CD5DDE90E01994B05F00F0538
:10231000D3E9082301F076FD0324CDE9020100E0B2
:102320000224934E6DB1E90708D5DDE90801D6E92D
:10233000002301F03DFCCDE9080101346D100836A1
:10234000F0E7DDE90823DDE9020101F05BFD20E0B3
:10235000CBF1000505B3DDE90E01844B05F00F025A
:1023600003EBC203D3E9002301F022FCCDE9020113
:102370007F4E2D110023022455B1EA0705D5D6E979
:10238000002301F015FC013401236D100836F3E73A
:102390001BB1CDE9020100E00224109BE3B1DDE9AD
:1023A00002560022734B2846314601F073FE98B165
:1023B000059B8BB1B9F1000F40F3E6800BF1FF33C1
:1023C0000893314600226C4B284601F0F1FB0134A2
:1023D000CDE902014E4602E0059ECDF820B0204630
:1023E000FEF7DAFDDDE9022301F0E2FB634B002298
:1023F000FEF786FCA1F1507304460C931D46D6B936
:10240000DDE9020100225E4BFEF778FC22460C9BC0
:10241000CDE9020101F05CFE002840F03F820C99FA
:10242000224601F10043DDE9020101F033FE0028FC
:1024300040F02B82A8E00A9A4C4B711E002A49D02A
:1024400003EBC103D3E9002300204E4901F0DAFC7D
:1024500022462B46FEF752FCCDE90C01069CDDE935
:10246000020101F055FE0546FEF796FD02460B46B9
:10247000DDE90201FEF742FCDDE90C23303504F80A
:10248000015BCDE9020101F005FE002840F01D834B
:10249000DDE9022300203749FEF730FCDDE90C239B
:1024A00001F0F8FD002840F0D180069BE31AB3420A
:1024B0006ADADDE90C0100222F4B01F079FB0022E2
:1024C000CDE90C01DDE902012B4B01F071FBCDE9F7
:1024D0000201C4E703EBC1012246D1E900012B460A
:1024E00001F066FB069BCDE90C011D469C19DDE958
:1024F000020101F00DFE0646FEF74EFD02460B46B8
:10250000DDE90201FEF7FAFB303605F8016BAC425B
:10251000CDE902014FF0000222D11A4BDDE90C0196
:10252000FEF7EEFB02460B46DDE9020101F0D0FDAD
:10253000002840F08B80DDE90C2300201149FEF7D4
:10254000DDFB02460B46DDE9020101F0A3FDD8B137
:1025500014F8013C621E302B40F0B7821446F7E7B6
:10256000054B01F025FBCDE90201C0E7A8420008B8
:10257000804300080000F03F0000244000001C40A1
:10258000000014400000E03FDDE90E34CDE90234E4
:10259000139B002B7CDBBBF10E0F79DCAB4B03EB09
:1025A000CB03D3E900671F9B002B14DA059B002B9C
:1025B00011DC40F06C810022A54B3046394601F019
:1025C000F7FADDE9022301F079FD059D2E4600288A
:1025D00040F05F8165E1069CDDE9028932463B46B9
:1025E0004046494601F00EFC01F092FD0546FEF71B
:1025F000D3FC32463B4601F0DBFA0B460246494625
:102600004046FEF77BFB05F1300E069B04F801EB1C
:10261000C3EB040E059B73452DD102460B46FEF716
:102620006FFB8046894602460B463046394601F02C
:1026300031FD78B942464B463046394601F020FD1F
:10264000002800F04482EB0704D440E2DDF820B01B
:1026500000E01C4614F8012C631E392A07D1069AA3
:102660009A42F6D1069930220BF1010B0A701A78C2
:1026700001321A702BE20022764B01F099FA002207
:1026800000238046894601F0FBFC0028A6D01EE20C
:102690000A9A002A2BD01E9A012A0ADC119A12B13A
:1026A00003F2334302E0129BC3F136033D46444636
:1026B00013E0059B5D1EAF42BFBF0B9BEA1B9B183F
:1026C0000B93059BB6BF2F467D1B0025002BA7BF94
:1026D0004446059BC3EB08040023079A01211A44D2
:1026E00050469844079200F0D6FB064602E03D466D
:1026F00044460A9E5CB1079B002B08DDA342A8BF9D
:102700002346079AC3EB0808E41AD31A0793002F4D
:102710001DDD0A9BABB18DB131462A46504600F013
:1027200053FC049A01460646504600F0BDFB04994E
:102730000890504600F010FB089B04937A1B06D0CB
:1027400000E03A460499504600F03EFC0490012116
:10275000504600F0A0FB0B9B05465BB31A460146B2
:10276000504600F031FC1E9B0546012B18DC029BF5
:1027700083B9039BC3F3130373B9039B23F000478F
:102780003F0D3F054FB1079B08F101080133079347
:10279000012702E0002700E0029F0B9B73B100E0DD
:1027A00000272B6905EB8303186900F027FBC0F1B4
:1027B000200004E01E9B012BD9DD0B9F0120079B0D
:1027C000184410F01F0008D0C0F12003042B02DDD4
:1027D000C0F11C0002E006D018461C30079B804464
:1027E000034404440793B8F1000F05DD4246049901
:1027F000504600F037FC0490079B002B05DD29466E
:102800001A46504600F02EFC0546109B23B329467D
:10281000049800F078FC00281EDA00230A220499AC
:10282000504600F0B0FA0A9B0BF1FF3B0490002BDE
:1028300000F05F81314600230A22504600F0A3FADF
:10284000B9F1000F06463FDC3BE000BFA84200089C
:102850000000144000002440059B002B2BDC1E9B35
:10286000022B28DDDDF81490B9F1000F11D12946B3
:102870004B460522504600F086FA0146054604986C
:1028800000F041FC00280CDC03E0354600E00025A8
:102890002E461F9B069C6FEA030B09E03546DDF8C8
:1028A00020B0069B069A5C1C312313700BF1010BC0
:1028B00005960026F7E00A9BDDF8149023B9069CE4
:1028C000B2E01E9B022BCFDC002C05DD31462246F8
:1028D000504600F0C7FB06469FB17168504600F0B5
:1028E00006FA0446326906F10C01023292000C30FD
:1028F00000F0F2F901222146504600F0B3FB0590AA
:1029000000E00596029B069F03F00103079329460A
:102910000498FFF7D9FA3146044600F130080498CC
:1029200000F0F1FB059A02902946504600F007FCA2
:10293000C36802463BB901460A90049800F0E3FBE5
:102940000A9A034600E00123114650460A9300F01C
:1029500003FA0A9B53B91E9A42B9079A32B9B8F1E1
:10296000390F2AD0029B002B1CDC1DE0029A002AA2
:1029700004DB1BD11E9ACAB9079ABAB9002B13DD22
:1029800001220499504600F06DFB2946049000F0A6
:10299000BAFB002803DC07D118F0010F04D0B8F10E
:1029A000390F0AD004F131087C1C0CE0002B07F130
:1029B00001040BDDB8F1390F03D139233B70013726
:1029C00056E008F1010887F800806CE0069B274676
:1029D000E31A4B4504F8018C3BD000230A220499EA
:1029E000504600F0D0F9059B04909E424FF00A0239
:1029F0004FF000033146504604D100F0C4F90646BA
:102A0000059084E700F0BFF9002306460A220599E5
:102A1000504600F0B8F9059079E700230A2204999E
:102A2000504600F0B0F9049029460498FFF74CFA9C
:102A3000069B00F1300804F8018BE31A4B45ECDBF0
:102A4000069B0596B9F1010FACBF4B4401331F46FD
:102A5000002601220499504600F004FB2946049008
:102A600000F051FB002803DC15D118F0010F12D043
:102A70003C4614F8013C621E392B09D1069B934257
:102A800004D10BF1010B3123069A02E01446F0E762
:102A90000133137007E03C4614F8013C621E302BF2
:102AA00001D11446F8E72946504600F055F9059B38
:102AB0006BB12EB19E4203D03146504600F04CF926
:102AC0000599504600F048F901E0DDF820B004997E
:102AD000504600F041F90023209A23700BF10103C6
:102AE0001360229B1BB11C6001E008480AE00698B5
:102AF00008E0B9F1000F3FF7E2AE1E9B022B7FF713
:102B0000DEAEB1E615B0BDE8F08F00BF08420008A8
:102B1000014900F0A9B800BF0D3A000810B50446FD
:102B2000002303604360836081814366C281036147
:102B300043618361194608225C30FEF72BFD054B8B
:102B400024626362044BA362044BE362044B23637D
:102B500010BD00BFB1360008D33600080B3700089F
:102B60002F37000870B568234D1E5D430E4605F1F2
:102B7000740100F0EBFB044640B1002180E8420004
:102B80000C30A06005F16802FEF704FD204670BD20
:102B9000836910B5044633BB8364C3640365124B79
:102BA000124A1B688262984204BF0123836100F0CD
:102BB0001FF86060204600F01BF8A060204600F07F
:102BC00017F80022E06004216068FFF7A7FF0122E8
:102BD0000921A068FFF7A2FF02221221E068FFF797
:102BE0009DFF0123A36110BDF4410008112B0008D3
:102BF000F8B51C4B07461E68B36913B93046FFF79A
:102C0000C7FF4836B4687368013B04D4B4F90C506C
:102C10007DB16834F8E733680BB13668F2E7042118
:102C20003846FFF79FFF30600028F6D10C233B6049
:102C3000F8BD4FF6FF73E3810123A381656625602C
:102C4000A560656025616561A5610822294604F1DA
:102C50005C00FEF79FFC6563A563A564E564204600
:102C6000F8BD00BFF44100082DE9F84380468946CD
:102C700000F14804002694B1A5686768013F0CD4B0
:102C8000AB89012B07D9B5F90E30013303D02946A2
:102C90004046C84706436835F0E72468EBE730460E
:102CA000BDE8F883004870477C000020024B0146D5
:102CB000186800F04BBB00BF7800002010B5C9B207
:102CC00002449042034605D01C7801308C42F8D172
:102CD000184610BD002010BD10B5431E0A44914295
:102CE00004D011F8014B03F8014FF8E710BD70B59F
:102CF000456A04460E463DB91020FFF7D7FF6062D3
:102D0000456085600560C560656AEB6843B1636ACC
:102D1000DB6853F8260078B1026843F8262017E0F4
:102D200021220421204600F0B7FA636AE860DB68DC
:102D3000002BECD1002070BD012101FA06F56A1DBF
:102D40009200204600F0A8FA0028F3D04660856083
:102D500000230361C36070BD70B5446A06460D462A
:102D60003CB91020FFF7A2FF7062446084600460E9
:102D7000C4603DB1736A6A68DB6853F82210296049
:102D800043F8225070BD2DE9F04106460C460D690E
:102D90001F4601F1140E0023DEF80000013381B25A
:102DA00002FB0171000C0F0C02FB007089B201EBF9
:102DB00000419D424FEA10474EF8041BECDCD7B1AE
:102DC000A3689D4212DB616830460131FFF78FFF37
:102DD0008046226904F10C01023292000C30FFF7A8
:102DE0007BFF21463046FFF7B7FF444604EB8503DF
:102DF00001355F6125612046BDE8F081030C1B04AD
:102E000013B90004102300E0002310F07F4F04BF2B
:102E10000002083310F0704F04BF0001043310F0BB
:102E2000404F04BF80000233002803DB420003D57B
:102E3000581C70471846704720207047036813F0ED
:102E400007020BD0D90722D49A074BBF5B089B0817
:102E5000036003604CBF01200220704799B209B99A
:102E60001B0C102213F0FF0F04BF1B0A08321907B6
:102E700004BF1B090432990704BF9B080232D9071B
:102E800002D45B0805D00132036010467047002071
:102E900070472020704710B50C460121FFF727FF2F
:102EA00001224461026110BD2DE9F74F14460A6901
:102EB000236988469A42BEBF0B46A0461C46D8F8F6
:102EC0001070D4F81090D8F80830D8F8041007EB38
:102ED00009069E42C8BF0131FFF709FF00F1140542
:102EE0002B4605EB860C0022634502D243F8042BE7
:102EF000FAE704F1140208F1140102EB890301EB73
:102F000087070093009B0192934257D9B2F800B013
:102F1000BBF1000F23D08946AE464FF0000859F8A8
:102F2000044BBEF800A0A3B20BFB03A34FEA144A64
:102F3000DEF8004043444FEA14480BFB0A84F24693
:102F400004EB13449BB243EA04434F454FEA144851
:102F50004AF8043B01D9D646E1E7CEF80480019B4C
:102F60000432B3F802A0BAF1000F21D02C468946F2
:102F70002B684FF00008B9F800E0B4F802B09BB23B
:102F80000AFB0EBEA346F04443EA08434BF8043B59
:102F900059F8043BB4F804E01B0C0AFB03E34F456B
:102FA00003EB18434FEA134801D95C46E3E763603B
:102FB0000435A7E75CF8043D13B9013E002EF9DCA7
:102FC000066103B0BDE8F08F2DE9F843154612F015
:102FD000030206460F4607D0214C013A002354F85D
:102FE0002220FFF7D0FE0746AD1036D0746A3CB9F8
:102FF0001020FFF75BFE7062446084600460C46070
:10300000D6F82480D8F808404CB940F271213046F7
:10301000FFF741FF04460023C8F8080003604FF0A3
:103020000008EB070AD5394622463046FFF73CFF39
:10303000814639463046FFF78FFE4F466D100CD063
:10304000206808B10446ECE7224621463046FFF7E7
:103050002BFF2060C0F80080F4E73846BDE8F88315
:10306000704300082DE9F0470C4607469146266953
:103070004FEA621A56444968A368751CAB4202DAEB
:1030800001315B00FAE73846FFF731FE0023804646
:103090001A4600F11401534503DA41F823200133A5
:1030A000F9E72AEAEA73206901EB830319F01F09A3
:1030B00004F1140101EB800E14D0C9F1200C0022A0
:1030C00008689A4600FA09F0024343F8042B51F8C5
:1030D000042B8E4522FA0CF2F2D8CAF8042042B131
:1030E000B51C06E0043B51F8042B8E4543F8042F31
:1030F000F9D8013D3846C8F810502146FFF72CFE9C
:103100004046BDE8F08703690A6910B59B1A11D1E2
:1031100092001430143183180A4453F8044D52F8C5
:10312000041D8C4202D007D3012010BD9842F4D375
:10313000002010BD184610BD4FF0FF3010BD2DE926
:10314000F8430C460746114620461546FFF7DBFFBD
:10315000061E08D131463846FFF7C9FD0123036139
:103160004661BDE8F883BCBF23462C4638466168FB
:10317000BABF1D4601260026FFF7B9FD2B69C660C0
:10318000266905F1140904F1140101EB860709EB26
:10319000830800F114054FF0000C51F8042B59F886
:1031A000044B93B29C44A3B2240CC3EB0C03C4EBBA
:1031B000124202EB23429BB24FEA224CC84543EA3B
:1031C00002428E4645F8042BE7D8BE450ED25EF883
:1031D000041B8AB26244131403EB114392B242EA15
:1031E00003424FEA234C45F8042BEEE755F8043D23
:1031F0000BB9013EFAE70661BDE8F8832DE9F3411A
:103200001C4601219046089E099DFFF770FDC4F3FE
:103210001302C4F30A5407460CB142F4801201921F
:10322000B8F1000F19D002A840F8088DFFF706FE8C
:10323000009B48B1019AC0F1200102FA01F10B4351
:10324000C2407B61019200E07B61019B002B14BFB7
:1032500002210121BB61396107E001A8FFF7EEFD02
:10326000019B01217B613961203034B1A4F23344E8
:1032700004443460C0F1350009E0A0F2324007EBAD
:10328000810330601869FFF7B9FDC0EB4110286079
:10329000384602B0BDE8F08138B502FB01F42146A2
:1032A00000F054F8054618B122460021FEF772F9E5
:1032B000284638BD38B50546002944D051F8043CAD
:1032C0000C1F002BB8BFE41800F03CFC1E4A13682A
:1032D000114613B96360146030E0A3420DD922682F
:1032E000A018834201BF18685B68121822606360EF
:1032F0000C6023E0A24203D813465A68002AF9D191
:1033000018681918A1420BD121680144581882424B
:10331000196013D110685268014419605A600DE0B9
:1033200002D90C232B6009E021686018824201BF9A
:10333000106852680918216062605C602846BDE828
:10334000384000F000BC38BDE000002070B5CD1C56
:1033500025F0030508350C2D38BF0C25002D064639
:1033600001DBA94202D90C23336046E000F0EAFBFE
:10337000234B1C681A462146A1B10B685B1B0ED477
:103380000B2B03D90B60CC18CD501EE08C420BBF29
:1033900063684B681360636018BF0C4615E00C4609
:1033A0004968E9E7174C23681BB9304600F070F90B
:1033B00020602946304600F06BF9431C18D0C41C2D
:1033C00024F00304A0420DD12560304600F0BBFB81
:1033D00004F10B00231D20F00700C31A0ED05A423F
:1033E000E25070BD211A304600F052F90130EBD1A5
:1033F0000C233360304600F0A6FB002070BD00BFF8
:10340000E0000020DC000020936810B4013B002B9A
:10341000936008DA9469A34202DBCBB20A2B02D193
:1034200010BC00F089B91368581C10601970C8B23C
:1034300010BC7047F8B506460F461446D518AC4286
:1034400008D03A4614F8011B3046FFF7DDFF431C55
:10345000F5D100E00020F8BD2DE9F04F9DB00C46FD
:1034600017460393064618B183690BB9FFF790FB23
:103470007F4B9C4201D1746808E07E4B9C4201D195
:10348000B46803E07C4B9C4208BFF468A38918072A
:103490000CD5236953B10023099320238DF82930DB
:1034A00030238DF82A30DFF8D4B144E0214630468D
:1034B00000F0A8F90028EED04FF0FF30D5E0039AD5
:1034C000111D12680391002A80F28C80524243F051
:1034D00002000792049098F800302E2B00F08480B0
:1034E000032298F800106548FFF7E8FB48B1402335
:1034F000CBEB000003FA00F0049B08F1010818432D
:10350000049098F8001006225D4808F101078DF834
:103510002810FFF7D3FB002800F09580594B002BB3
:1035200040F08880039B073323F00703083303939D
:10353000099B53440993B846454615F8013B1BB90E
:10354000B8EB07090FD003E0252BF9D0A846F3E725
:103550004B463A4621463046FFF76CFF01307FD09C
:10356000099B4B44099398F80030002B78D0002336
:103570004FF0FF3204930793059206938DF8533072
:103580001A930127052229783F48FFF797FB05F199
:103590000108049B38B13C4A4546801A07FA00F0FE
:1035A00018430490EEE7D90644BF20228DF853203B
:1035B0001A0744BF2B228DF853202A782A2A3FF479
:1035C0007EAF079A00210A20A84698F800300135FE
:1035D000303B092B03D800FB02320121F4E700291C
:1035E0003FF479AF079276E798F801302A2B0BD198
:1035F000039B08F102081A1D1B680392002BB8BF39
:103600004FF0FF3305936BE700231946059308F14C
:1036100001000A25804698F800200130303A092A36
:1036200003D805FB01210123F4E7002B3FF458AF39
:10363000059155E703AB00932246144B04A930468D
:10364000FEF742F807E003AB009322460F4B04A9B4
:103650003046FEF7F3FAB0F1FF3F82467FF468AFE1
:10366000A3895B063FF528AF09981DB0BDE8F08F30
:103670003C4200085C4200087C420008AE4300085F
:10368000B2430008C9160008A843000835340008F2
:1036900038B5064C002305460846236000F088FD37
:1036A000431C02D1236803B12B6038BDFC0100200C
:1036B00010B50C46B1F90E1000F046FA0028ABBF69
:1036C000636DA3891B1823F48053ACBF6365A3818A
:1036D00010BD2DE9F0411F468B890546DB050C46E0
:1036E000164605D502230022B1F90E1000F0B8F9F4
:1036F000A389324623F48053A381B4F90E103B46CC
:103700002846BDE8F04100F06BB810B50C46B1F9A1
:103710000E1000F0A5F9431CA38915BF606523F4C2
:10372000805343F48053A38118BFA38110BDB1F926
:103730000E1000F0D5B80000F8B50F461446064646
:1037400018B183690BB9FFF723FA224B9C4201D1D0
:10375000746808E0204B9C4201D1B46803E01F4B21
:103760009C4208BFF468A369A360A3891A0709D51E
:1037700023693BB123682069FDB2181A6369984236
:103780000FDB08E02146304600F03CF80028F1D07D
:103790004FF0FF30F8BD2146304600F037F90028E1
:1037A000F6D1A368013BA36023685A1C22601F70F6
:1037B0006269431C934204D0A389DB0707D50A2D15
:1037C00005D12146304600F021F90028E0D12846F5
:1037D000F8BD00BF3C4200085C4200087C42000883
:1037E00038B5074C054608461146002222601A46A5
:1037F000FCF79EFD431C02D1236803B12B6038BD4A
:10380000FC010020324B70B51D6806460C4625B100
:10381000AB6913B92846FFF7BBF92E4B9C4201D187
:103820006C6808E02C4B9C4201D1AC6803E02B4B48
:103830009C4208BFEC68B4F90C309AB215071DD44D
:10384000D00602D4092232603AE0510712D5616BEA
:1038500041B104F14403994202D03046FFF72AFDFA
:1038600000236363A38923F02403A38100236360FF
:1038700023692360A38943F00803A38123694BB91B
:10388000A38903F42073B3F5007F03D021463046AB
:1038900000F01CF9A28912F0010305D00023A360F7
:1038A00063695B42A36103E0920758BF6369A36049
:1038B00023695BB9B4F90C3003F0800080B230B1F9
:1038C00043F04003A3814FF0FF3070BD002070BD76
:1038D000780000203C4200085C4200087C4200085E
:1038E00038B5064C002305460846236000F038FC36
:1038F000431C02D1236803B12B6038BDFC010020BA
:103900008A892DE9F041054610070C4659D44B68C9
:10391000002B02DC0B6C002B17DDE66AAEB102F463
:103920008052002392B22F682B600AB1606D15E0BF
:10393000216A01232846B047411C0FD12B686BB187
:103940001D2B01D0162B03D12F600020BDE8F08184
:10395000A38943F04003A381BDE8F081A3895A07FE
:1039600005D56368C01A636B0BB1236CC01A0023C2
:103970000246E66A216A2846B047431CA38906D15D
:1039800029681D2939D8204ACA40D60735D50022D2
:1039900062602269D904226004D5421C01D12B68DF
:1039A00003B96065616B2F600029CED004F1440338
:1039B000994202D02846FFF77DFC00206063BDE8F5
:1039C000F0810F69002FC0D093070E680CBF4B69C0
:1039D0000023C7EB06080F608B6002E00744C0EBD2
:1039E0000808B8F1000FB0DD43463A46216A284680
:1039F000A66AB0470028F1DCA38943F04003A38105
:103A00004FF0FF30BDE8F0810100402038B50B6970
:103A100005460C46DBB118B183690BB9FFF7B8F85E
:103A20000C4B9C4201D16C6808E00B4B9C4201D1CD
:103A3000AC6803E0094B9C4208BFEC68B4F90C3059
:103A40002BB121462846BDE83840FFF759BF00207A
:103A500038BD00BF3C4200085C4200087C420008C0
:103A600038B5074C054608461146002222601A4622
:103A700000F08EFB431C02D1236803B12B6038BDDC
:103A8000FC01002070B50E46B1F90E1090B000296F
:103A900014461D4606DA00232B60B3891A060ED59C
:103AA00040230EE001AA00F061F80028F3DB029A3F
:103AB00002F47042A2F500535A425A412A604FF470
:103AC00080630020236010B070BD00008B8973B547
:103AD0009E0705460C4610D401AB6A46FFF7D2FF9D
:103AE000009906462846FFF731FC68B9B4F90C3056
:103AF0009A0522D443F00203A38104F14703236013
:103B000023610123636118E00D4BAB62A389206040
:103B100043F08003A381009B20616361019B4BB153
:103B2000B4F90E10284600F033F818B1A38943F019
:103B30000103A381A0893043A08102B070BD00BF02
:103B4000112B00087047704738B5074C05460846EA
:103B50001146002222601A4600F022FB431C02D1CB
:103B6000236803B12B6038BDFC01002038B5074C39
:103B70000023054608461146236000F0F9FA431C6D
:103B800002D1236803B12B6038BD00BFFC010020C7
:103B900038B5064C002305460846236000F0F0FACD
:103BA000431C02D1236803B12B6038BDFC01002007
:103BB00070B54FF0FF0C4CF4E06C1CEA11541DBFC3
:103BC0001CEA135594EA0C0F95EA0C0F00F0DEF88E
:103BD0002C4481EA030621EA4C5123EA4C5350EA73
:103BE000013518BF52EA033541F4801143F48013C4
:103BF00038D0A0FB02CE4FF00005E1FB02E506F055
:103C00000042E0FB03E54FF00006E1FB03569CF0A9
:103C1000000F18BF4EF0010EA4F1FF04B6F5007FAF
:103C200064F5407404D25FEA4E0E6D4146EB060621
:103C300042EAC62141EA55514FEAC52040EA5E50AA
:103C40004FEACE2EB4F1FD0C88BFBCF5E06F1ED854
:103C5000BEF1004F08BF5FEA500E50F1000041EB8B
:103C6000045170BD06F0004646EA010140EA020038
:103C700081EA0301B4EB5C04C2BFD4EB0C0541EA5A
:103C8000045170BD41F480114FF0000E013C00F36F
:103C9000AB8014F1360FDEBF002001F0004170BD93
:103CA000C4F10004203C35DA0C341BDC04F11404AC
:103CB000C4F1200500FA05F320FA04F001FA05F238
:103CC00040EA020001F0004221F0004110EBD37005
:103CD00021FA04F642EB06015EEA430E08BF20EA31
:103CE000D37070BDC4F10C04C4F1200500FA04F3D4
:103CF00020FA05F001FA04F240EA020001F0004166
:103D000010EBD37041F100015EEA430E08BF20EAD8
:103D1000D37070BDC4F1200500FA05F24EEA020E20
:103D200020FA04F301FA05F243EA020321FA04F04F
:103D300001F0004121FA04F220EA020000EBD37006
:103D40005EEA430E08BF20EAD37070BD94F0000F06
:103D50000FD101F00046400041EB010111F4801F3A
:103D600008BF013CF7D041EA060195F0000F18BFEB
:103D7000704703F00046520043EB030313F4801F27
:103D800008BF013DF7D043EA0603704794EA0C0FE1
:103D90000CEA135518BF95EA0C0F0CD050EA4106F7
:103DA00018BF52EA4306D1D181EA030101F0004174
:103DB0004FF0000070BD50EA410606BF104619469C
:103DC00052EA430619D094EA0C0F02D150EA0136A8
:103DD00013D195EA0C0F05D152EA03361CBF1046E9
:103DE00019460AD181EA030101F0004141F0FE4188
:103DF00041F470014FF0000070BD41F0FE4141F40C
:103E0000780170BD70B54FF0FF0C4CF4E06C1CEA0B
:103E100011541DBF1CEA135594EA0C0F95EA0C0FC0
:103E200000F0A7F8A4EB050481EA030E52EA03357B
:103E30004FEA013100F088804FEA03334FF080559C
:103E400045EA131343EA12634FEA022245EA1115C9
:103E500045EA10654FEA00260EF000419D4208BF7A
:103E6000964244F1FD0404F5407402D25B084FEA27
:103E70003202B61A65EB03055B084FEA32024FF4D3
:103E800080104FF4002CB6EB020E75EB030E22BF30
:103E9000B61A754640EA0C005B084FEA3202B6EBF0
:103EA000020E75EB030E22BFB61A754640EA5C009F
:103EB0005B084FEA3202B6EB020E75EB030E22BF2F
:103EC000B61A754640EA9C005B084FEA3202B6EB30
:103ED000020E75EB030E22BFB61A754640EADC00EF
:103EE00055EA060E18D04FEA051545EA16754FEA51
:103EF00006164FEAC30343EA52734FEAC2025FEA6F
:103F00001C1CC0D111F4801F0BD141EA00014FF0FD
:103F100000004FF0004CB6E711F4801F04BF0143CE
:103F20000020B4F1FD0C88BFBCF5E06F3FF6AFAEEA
:103F3000B5EB030C04BFB6EB020C5FEA500C50F17A
:103F4000000041EB045170BD0EF0004E4EEA1131FD
:103F500014EB5C04C2BFD4EB0C0541EA045170BD04
:103F600041F480114FF0000E013C90E645EA060E48
:103F70008DE60CEA135594EA0C0F08BF95EA0C0F76
:103F80003FF43BAF94EA0C0F0AD150EA01347FF4BE
:103F900034AF95EA0C0F7FF425AF104619462CE795
:103FA00095EA0C0F06D152EA03353FF4FDAE1046F8
:103FB000194622E750EA410618BF52EA43067FF449
:103FC000C5AE50EA41047FF40DAF52EA43057FF4D9
:103FD000EBAE12E74FF0FF3C06E000BF4FF0010CE4
:103FE00002E000BF4FF0010C4DF804CD4FEA410C48
:103FF0007FEA6C5C4FEA430C18BF7FEA6C5C1BD015
:1040000001B050EA410C0CBF52EA430C91EA030F95
:1040100002BF90EA020F0020704710F1000F91EAF2
:10402000030F58BF994208BF90422CBFD8176FEAC0
:10403000E37040F0010070474FEA410C7FEA6C5C8E
:1040400002D150EA013C07D14FEA430C7FEA6C5C95
:10405000D6D152EA033CD3D05DF8040B704700BFC1
:104060008446104662468C461946634600E000BF0F
:1040700001B5FFF7B7FF002848BF10F1000F01BDE1
:104080004DF808EDFFF7F4FF0CBF012000205DF8AC
:1040900008FB00BF4DF808EDFFF7EAFF34BF012031
:1040A00000205DF808FB00BF4DF808EDFFF7E0FFCA
:1040B00094BF012000205DF808FB00BF4DF808ED1B
:1040C000FFF7CEFF94BF012000205DF808FB00BF82
:1040D0004DF808EDFFF7C4FF34BF012000205DF864
:1040E00008FB00BF4FEA410C7FEA6C5C02D150EA4A
:1040F000013C0AD14FEA430C7FEA6C5C02D152EAE0
:10410000033C02D14FF0000070474FF001007047B0
:104110004FEA410212F5001215D211D56FF47873EF
:10412000B3EB625212D94FEAC12343F0004343EA92
:10413000505311F0004F23FA02F018BF404270476D
:104140004FF00000704750EA013005D111F00040F7
:1041500008BF6FF0004070474FF00000704700BF8D
:10416000024B58221A604FF0FF307047FC010020CC
:10417000024B58221A604FF0FF307047FC010020BC
:10418000024B58221A600020704700BFFC0100203B
:10419000024B58221A604FF0FF307047FC0100209C
:1041A000024B58221A604FF0FF307047FC0100208C
:1041B000044B0246196809B903491960186802449A
:1041C0001A607047E400002000020020FEE70000B3
:1041D000F8B500BFF8BC08BC9E467047F8B500BFF4
:1041E000F8BC08BC9E46704725302E3266200A0077
:1041F0004300000018000020494E4600696E66002A
:104200004E414E006E616E00300030313233343535
:104210003637383941424344454600303132333431
:10422000353637383961626364656600496E6669A0
:104230006E697479004E614E0000000000000000BD
:10424000000000000000000000000000000000006E
:10425000000000000000000000000000000000005E
:10426000000000000000000000000000000000004E
:10427000000000000000000000000000000000003E
:10428000000000000000000000000000000000002E
:10429000000000000000000000000000504F5349E3
:1042A00058002E0000000000000000000000F03F59
:1042B0000000000000002440000000000000594001
:1042C0000000000000408F40000000000088C34054
:1042D00000000000006AF8400000000080842E41C9
:1042E00000000000D01263410000000084D7974115
:1042F0000000000065CDCD41000000205FA002421B
:10430000000000E876483742000000A2941A6D428F
:10431000000040E59C30A2420000901EC4BCD64282
:1043200000003426F56B0C430080E03779C341432D
:1043300000A0D8855734764300C84E676DC1AB43A3
:10434000003D9160E458E143408CB5781DAF1544C1
:1043500050EFE2D6E41A4B4492D54D06CFF080449C
:10436000F64AE1C7022DB544B49DD9794378EA44B1
:1043700005000000190000007D00000000000000A2
:104380000080E03779C34143176E05B5B5B8934651
:10439000F5F93FE9034F384D321D30F94877825A1D
:1043A0003CBF737FDD4F1575232D302B2000686CCB
:1043B0004C006566674546470000000000000000AD
:0843C00088BDFF7F0100000031
:1043C80001000000000000000102030401020304D0
:1043D8000607080902040608000000003C4200081D
:1043E8005C4200087C420008000000000000000059
:1043F8000000000000000000F0410008000000007C
:1044080000000000000000000000000000000000A4
:104418000000000000000000000000000000000094
:104428000000000000000000000000000000000084
:10443800000000000000000018000020A242000850
:10444800AD430008AD430008AD430008AD43000884
:10445800AD430008AD430008AD430008AD43000874
:10446800AD430008FFFFFFFFFFFFFFFFFFFFFFFF58
:0C447800FFFF000011010008ED0000082B
:0400000508000000EF
:00000001FF
